:020000040800F2
:1000000008080020A90100086D190008CB17000896
:10001000BD180008A91400081128000800000000FD
:10002000000000000000000000000000CD1B0008E0
:10003000AD14000800000000391A0008B91C0008BF
:10004000C3010008C3010008C3010008C301000880
:10005000C3010008C3010008C3010008C301000870
:10006000C3010008C3010008C3010008C301000860
:10007000C3010008C3010008C3010008C301000850
:10008000C3010008C301000889130008C301000868
:10009000C3010008C3010008C3010008C301000830
:1000A000C3010008C3010008C3010008C301000820
:1000B000A1200008B92000080D220008C301000893
:1000C000C3010008C3010008C3010008C301000800
:1000D000C3010008C3010008C3010008C3010008F0
:1000E00045150008C3010008C301000800F002F82C
:1000F00000F04AF80AA090E8000C82448344AAF178
:100100000107DA4501D100F03FF8AFF2090EBAE875
:100110000F0013F0010F18BFFB1A43F0010318473B
:100120005833000078330000103A24BF78C878C1F3
:10013000FAD8520724BF30C830C144BF04680C60ED
:10014000704700000023002400250026103A28BF35
:1001500078C1FBD8520728BF30C148BF0B60704739
:10016000662903F03C81642900F05280002070472A
:100170001FB500F0DFFB04000020002102F0D2FDDB
:10018000E0601FBD10B510BD00F0D0FC1146FFF7B8
:10019000EFFF02F079FC00F0EEFC03B4FFF7F2FF92
:1001A00003BC00F02FFD00000948804709480047C4
:1001B000FEE7FEE7FEE7FEE7FEE7FEE7FEE7FEE717
:1001C000FEE7FEE704480549054A064B7047000074
:1001D000BD1C0008ED0000080802002008080020EF
:1001E00008040020080400200FB41CB5074B06AA21
:1001F0007B4469460090059800F05DFB002069464D
:1002000000F06CFB1CBC5DF814FB0000E90600006C
:100210002DE9F0410646002410687529314616A5DF
:1002200010D0AFF30080002802DA404213A507E0A7
:1002300031688A0701D512A502E0490704D511A546
:10024000012401E0AFF3008000210A2206F1240717
:1002500009E0B0FBF2FCB0FBF2F302FB1C00303013
:1002600078541846491C0028F3D123462A463046C4
:10027000BDE8F04100F0B4B8000000002D0000001F
:100280002B000000200000002DE9F0474FF0000A8D
:1002900089460446C0F820A02046E1688847002827
:1002A00076D0252806D0D4E901219047206A401C49
:1002B0002062F1E7E168204600258847C4F81CA0C9
:1002C00006460027C4F818A02A2E09D0304602F0AE
:1002D00059FB38B304EB8708303EC8F8186019E0C2
:1002E00059F8041B204604EB87029161E1688847B6
:1002F000012F064618D1E069002820DA25F02005F4
:100300001DE0D8F8180000EB800006EB4000303804
:10031000C8F818002046E1688847064602F032FB1C
:100320000028EED1012F0AD02E2E08D12046E168F8
:1003300088477F1C0646022F45F02005C4DBA069D4
:10034000002803DA404245F00105A061E80701D02A
:1003500025F01005B6B1A6F14100192802D82036C3
:1003600045F400654A463146204625604D46FFF774
:10037000F7FE58B1012806D0ED1D25F0070000F169
:10038000080989E704E005F1040985E730468AE7B2
:10039000206ABDE8F0874FF000020429C0F0128007
:1003A00010F0030C00F0A182CCF1040CBCF1020FA0
:1003B00018BF00F8012BA8BF20F8022BA1EB0C01FD
:1003C00000F093BA5FEAC17C24BF00F8012B00F86B
:1003D000012B48BF00F8012B7047704770477047EA
:1003E0002DE9F0470D4699469246044600F124084F
:1003F0000168880604D5E06921F01001216000E061
:100400000120A84201DD471B00E00027A1697A19FD
:1004100002EB0900081AA0612078C00602D4204629
:10042000AFF30080002608E0D4E901211AF80600A5
:100430009047206A401C761C20624E45F4DB2078F1
:10044000C0060AD52046AFF3008006E0D4E90121BA
:1004500030209047206A401C2062381EA7F1010717
:10046000F4DC07E0D4E9012118F805009047206A80
:10047000401C2062281EA5F10105F3DC2046AFF3E5
:1004800000802078000602D50220BDE8F087012018
:10049000FBE770472DE9FF4F0C461E464FF0FF3734
:1004A0008BB0D2E90001DDF860800A908A46C1F382
:1004B0000A5505B93D46002108464FF00000BAF143
:1004C000000F00F4400005DA00EB80004FF440011B
:1004D00001EA50004FEA9059B9F1010F00DDB94629
:1004E0000A9850EA4A000ED044F61050A5F2FF35A3
:1004F00045432F14B8F1000F1ED07542291E1EDD92
:10050000C9F100021CE0B8F1010F4FF0000001D06A
:10051000302103E0F24305E02154401CB042FBDBF4
:1005200030460022002121540B99C1F80880C1E90E
:1005300000200FB0BDE8F08FBD1B6D1CDEE74A4602
:1005400000DA694206A800F07FFA06AB93E80700DC
:1005500003AB83E8070050460A9900F05AFB8DE888
:100560000700A0F500501F3800900398002D09DD0A
:1005700042F21F014A46084403A90390684600F06E
:10058000B9FD08E0A0F500504A461F3803A90390C2
:10059000684600F0C3FD8DE807000004000C03D09E
:1005A0004FF0FF30410800E01046B8F1000F03D0D3
:1005B0000022009215461EE0751E05D400F0BEF91B
:1005C000303262556D1EF9D5B3460122084302D080
:1005D00000227F1C04E02078302801D100227F1EF9
:1005E000002A099786D01DE0112D07DA00F0A6F940
:1005F000303262556D1C50EA0102F5D1084302D039
:100600000098C8B10EE00021681E05E0235C625C22
:1006100063542254401E491C8142F7DBAB46A81BA1
:10062000401E0990002004F80B000B98099AC0F8AE
:100630000880C0E9002B7CE711264FF0000859E73D
:100640002DE9F04F88460446D21D22F0070191B0F3
:10065000D1E90001CDE90A0102F080F902460B98C8
:10066000C00F01D02D2007E02068810701D52B2085
:1006700002E0202101EAC000032A099001D0072AE4
:1006800005DB03464146204600F09EF90BE1207849
:10069000800601D5E06900E00620B8F1650F8146CB
:1006A00006D0B8F1660F18D0B8F1670F70D131E0FD
:1006B0000020B9F1110F009001DB112301E009F1D5
:1006C00001030AAA01A90CA8FFF7E4FEDDE90C70FA
:1006D000002609F10105834647E001204B460090C2
:1006E0004FF000470AAA01A90CA8FFF7D3FEDDE9E5
:1006F0000DB00C995D46002610B909F101000D18E6
:10070000B9EB050003D4C0F1FF3609F10105A5EBF3
:1007100009002BE0B9F1010F01DA4FF001090020C7
:10072000B9F1110F0090484601DD112300E00346A6
:100730000AAA01A90CA8FFF7ADFEDDE90C704D4631
:1007400000268346207800070AD4AB4500DA5D46D0
:1007500001A8012D04DD411911F8011C302907D031
:100760004F4502DA17F1040F04DA012082460FE048
:100770006D1EEEE7002F02DCED1B3E4403E0781C0B
:10078000A84200DD7D1CB81B00F1010A4FF00047B4
:100790002078000703D4AA4501DB4FF0FF3A00217F
:1007A000B7F1004F0DF143088DF8431024D002201B
:1007B0002B23002F01DA7F422D230A21021EA0F1F4
:1007C000010000DC5FB197FBF1FC97FBF1F201FB4C
:1007D0001C7C17460CF1300C08F801CDEEE7A8F1AF
:1007E000010003702188090501D5452100E065213C
:1007F000A0F1010800F8011C09980FA9A1EB080756
:10080000FF1D00B10120411901EBEA70A1693844D4
:10081000081A401EA0612078C00602D42046AFF31B
:100820000080099828B1D4E901219047206A401C32
:1008300020622078C00622D52046AFF300801EE05B
:10084000002E04DBB34502DD01A8805D00E030200E
:10085000D4E901219047206A401C2062761CAAF14D
:1008600001005FEA000A0AD100F064F8C06801687C
:10087000405CD4E901219047206A401C2062281E78
:10088000A5F10105DCDC07E0D4E9012118F8010B32
:100890009047206A401C2062381EA7F10107F3DC54
:1008A0002046AFF30080032011B043E601694A1CE3
:1008B00002610878704700B58FB0CDE901310021A1
:1008C000059105497944CDE9031011466846FFF7C3
:1008D000DBFC0FB000BD0000E5FFFFFF0A6802F877
:1008E000010B0A6070474FF0000200B513469446B2
:1008F0009646203922BFA0E80C50A0E80C50B1F178
:100900002001BFF4F7AF090728BFA0E80C5048BF8B
:100910000CC05DF804EB890028BF40F8042B08BF29
:10092000704748BF20F8022B11F0804F18BF00F825
:10093000012B704700487047C401002030B5B0F16A
:100940000A024FEA900E71F100034EEA817EB0EB8D
:100950000E0061EB91014FEA101E4EEA017E10EB92
:100960000E0041EB11114FEA102E4EEA016E10EB12
:100970000E0041EB11214FEA104E4EEA014E10EBF2
:100980000E0041EB1141401841F100014FEAD00047
:1009900040EA41704FEAD10110EB80054FEA810433
:1009A00044EA907444EB01046D1944EB0404521BB7
:1009B000A3414FF0000348BF0A3200D530BD401CB0
:1009C00041F1000130BD00002DE9F0411F46044611
:1009D00003260168072A01F4006004DB08B116A5AC
:1009E00005E016A503E008B115A500E015A521F066
:1009F00010002060A069C01EA0610FB1401EA06160
:100A00002046AFF300804FB1D4E90121384690472A
:100A1000206A401C2062C01C206206E0206AFAE7BF
:100A2000D4E9012115F8010B9047761EF8D2204633
:100A3000AFF30080BDE8F0814E414E006E616E0064
:100A4000494E4600696E66002DE9F047814616461C
:100A50008AB0334878440DC88DE80D00304878449A
:100A6000801C03AC0DC884E80D0041F69B3008449F
:100A7000372190FBF1F290FBF1F5A5F1800501FB28
:100A800012041B3C02D56442012000E00020DFF884
:100A900090A080460027FA44AAF1BE0A0DE0E007C4
:100AA00009D03246684607EB47010AEB810100F0A6
:100AB00035FB8DE8070064107F1C002CEFD1184F28
:100AC0007F44AC3F18E0E80714D007EB04100DF1A9
:100AD000180A90E80E008AE80E00C068F04201D1C2
:100AE00098190890324606A903A800F017FB03AB3B
:100AF00083E807006D10641C002DE4D1324669467E
:100B0000B8F1000F03A802D000F0F4FA01E000F001
:100B100005FBC9E90001C9F808200AB0BDE8F08763
:100B2000082A000000487047A40100207546FFF71E
:100B3000F9FFAE4605006946534620F0070085469A
:100B400018B020B5FFF73EFBBDE820404FF000068F
:100B50004FF000074FF000084FF0000B21F00701A5
:100B6000AC46ACE8C009ACE8C009ACE8C009ACE8E8
:100B7000C0098D4670470446AFF300802046FFF75A
:100B80000CFB00004FF0013C50F8042B51F8043BE3
:100B90009A4221D1A2EB0C03934313EACC1317D151
:100BA00050F8042B51F8043B9A4215D1A2EB0C03E8
:100BB000934313EACC130BD150F8042B51F8043BA8
:100BC0009A4209D1A2EB0C03934313EACC13DBD076
:100BD0004FF00000704700BFD01A01BAB1FA81F19E
:100BE00001F0180122FA01F0CB40C1F12001DBB283
:100BF000C0B2C01A2CFA01F3D11A914311EAC31101
:100C0000E6D1704701491820ABBEFEE7260002007E
:100C100070475FEA400C08BF91F0000F4FEA8C2349
:100C20004FEAC12243EA51514FEA1C5018BF00F568
:100C3000F0404FEA300018BF41F000415FEA6C5CC1
:100C400000F02980BCF1FF3F08BF40F080407047B2
:100C5000130C06BF12044FF0100C4FF0000C130ED3
:100C600004BF12020CF1080C130F04BF12010CF1A7
:100C7000040C930F04BF92000CF1020CD30F04BFBD
:100C800052000CF1010C11464FF00002A0F11F00C0
:100C9000A0EB0C00704711F0004F08BF704731F017
:100CA00000413FF4D5AF0B0C06BF09044FF0100C08
:100CB0004FF0000C0B0E04BF09020CF1080C0B0FD7
:100CC00004BF09010CF1040C8B0F04BF89000CF167
:100CD000020CCB0F04BF49000CF1010CCCF1200336
:100CE000A0EB0C0022FA03F302FA0CF241EA030132
:100CF00000F10100704720F07F4C80EA030023F0F0
:100D00007F47ACEB070303F57C5300F0004003F191
:100D1000FF032DE980494FEA154B09B44FEA14430C
:100D200025EA0B4E24EA03480FF2042606EB1327AC
:100D300049083E785FEA320203FB0667C7F5000701
:100D400007FB06F64FEA54374FEAD64606F102068D
:100D500007FB066CCCF1005C4FEA1C472CEA074C01
:100D600007FB06F40CFB06F504EB15464FEA961656
:100D700034BF00204FF000404FEAD13706FB07FC9C
:100D80004FEA1C4C0CFB0BF7D21B03FB0CF761EB7F
:100D900007010CFB0EF7B0EB074072EB17420CFBA0
:100DA00008F734BFA2EB0742B2EB074261EB1741F1
:100DB0004FEA0C444FEA910706FB07FC4FEA1C4C34
:100DC0000CFB0BF7B0EBC74072EB573203FB0CF791
:100DD00034BFA2EBC742B2EBC74261EB57310CFB09
:100DE0000EF7B0EBC70072EB57720CFB08F734BF7D
:100DF000A2EBC702B2EBC70261EB5771039F4FEA48
:100E0000816141EA921104EBCC044FEAD1374FEAF9
:100E1000826206FB07FC42EA90124FEA80604FEACA
:100E20001C4C0CFB0BF7D21B03FB0CF761EB07010F
:100E30000CFB0EF7B0EB074072EB17420CFB08F708
:100E400034BFA2EB0742B2EB074261EB17414FEA16
:100E50008C554FEA910704EB9C2406FB07FC4FEAF4
:100E60001C4C0CFB0BF7B0EBC74072EB573203FB8B
:100E70000CF734BFA2EBC742B2EBC74261EB57316C
:100E80000CFB0EF7B0EBC70072EB57720CFB08F7C8
:100E900034BFA2EBC702B2EBC70261EB577115EB8F
:100EA0004C254FEA816141EA92114FEA82624FEA92
:100EB000D13742EA901206FB07FC44F100044FEAE6
:100EC00080604FEA1C4C0CFB0BF7D21B03FB0CF7AA
:100ED00061EB07010CFB0EF7B0EB074072EB17421A
:100EE0000CFB08F734BFA2EB0742B2EB074261EB01
:100EF000174115EB1C154FEA813141EA92414FEA47
:100F0000823242EA90424FEA80304FEA0C7644F156
:100F1000000448EA03434EEA0B484FF0000EB2EBE0
:100F2000080C71EB030724BF624639464EEB0E0EE8
:100F30004FF0000B0018524149414BEB0B0BB2EB49
:100F4000080C71EB03077BF1000B24BF62463946A6
:100F50004EEB0E0E4FF0000B0018524149414BEB87
:100F60000B0BB2EB080C71EB03077BF1000B24BFFA
:100F7000624639464EEB0E0E51EA020718BF46F0A4
:100F8000010616EB0E7655F1000254F1000103D56F
:100F9000BDE88901BDE80088BDE88901BDE80048D9
:100FA000B619524141EB0101A3F101037047808062
:100FB0007F7E7D7C7B7A79787776767574737271B3
:100FC00071706F6E6E6D6C6C6B6A6A69686867666B
:100FD00066656464636362616160605F5F5E5E5DFD
:100FE0005D5C5C5B5B5A5A59595858575756565571
:100FF00055555454535352525251515050504F4FD3
:101000004F4E4E4D4D4D4C4C4C4B4B4B4A4A4A4922
:101010004949484848474747474646464545454465
:101020004444444343434342424242414141002BF2
:1010300026D4770021D01CB54FEA370703B44FF010
:1010400010004FF010014FF000000FBCBDE8104041
:101050000BF1010BBBF1010F08BF5FEA170722BFBD
:1010600012F1010211F101014FF0004143F10003BF
:1010700000F0004043EA00007047F9D35708DAE770
:1010800046EA064613F1400F4FEA16461FDD13F1FC
:10109000200FDFBF16430A46002120335B42C8D031
:1010A000C3F1200746EA064602FA07F74FEA16465A
:1010B00046EA0706C3F1200722FA03F201FA07F70E
:1010C00021FA03F14FF0000342EA0702B1E746EAD2
:1010D000020646EA06464FEA164646EA0106BCBF45
:1010E00046EA0646360C4FF000034FF000024FF080
:1010F00000019EE72DE9C048934630B491E83800DE
:1011000007C831EA400C48BF34EA430C03D5FFF767
:10111000F2FDFFF78CFFF0BCBDE800882DE9C04868
:10112000934630B491E8380007C810F0804F08BFEC
:1011300013F0804F03D100F005F8FFF778FFF0BC03
:10114000BDE8008820F07F4780EA030023F07F4C51
:1011500007EB0C03A3F57C5300F00040A3F1FE0362
:1011600092F0000F00F0B38095F0000F00F0778050
:101170002DE901494FEA11404FEA144621EA00489F
:1011800000FB06FC24EA064708FB06F607FB08F806
:1011900000FB07F718EB06484CEB164C4FEA124BD6
:1011A00018EB07484FEA15464CEB174022EA0B4E66
:1011B0000BFB06FC25EA06470EFB06F607FB0EFEB8
:1011C0000BFB07F71EEB064E4CEB164C4FF00006E0
:1011D0001EEB074E4CEB174B18EB0B0840F10000D1
:1011E00018EB0E0B58EB000840F100008F1A4FF07F
:1011F00000013CBFC943661B14BFB5EB040C0021C2
:101200003CBFC943F61B4FEA17444EEA8E0E27EA4D
:1012100004454FEA1C4704FB07622CEA074C05FB18
:1012200007F70CFB05F604FB0CFC16EB074642EB3C
:10123000174216EB0C4642EB1C421BEB060658EB22
:101240000202414146EA9E0601D5BDE80189B61970
:10125000524141EB0101A3F10103BDE801894FEACD
:1012600014454FEA114724EA054621EA074C05FBDD
:1012700007F406FB07F70CFB06F105FB0CFC11EB72
:10128000074144EB17444FEA124711EB0C4144EB82
:101290001C4422EA074C05FB07F206FB07F70CFB90
:1012A00006F605FB0CFC16EB074642EB174216EB65
:1012B0000C4642EB1C456A1854F1000148BF7047C8
:1012C000B619524141EB0101A3F10103704795F0BA
:1012D000000F37D04FEA11424FEA144721EA024685
:1012E00024EA074C02FB07F106FB07F70CFB06F4A8
:1012F00002FB0CFC14EB074441EB17414FEA154786
:1013000014EB0C4441EB1C4125EA074C02FB07F5AA
:1013100006FB07F70CFB06F602FB0CFC16EB074678
:1013200045EB174516EB0C4645EB1C42121951F1E3
:10133000000148BF7047B619524141EB0101A3F1CA
:10134000010370474FEA14454FEA114724EA054666
:1013500021EA074C05FB07F106FB07F70CFB06F239
:101360004FF0000605FB0CFC12EB074241EB174166
:1013700012EB0C4251EB1C4148BF7047921841EBF5
:101380000101A3F10103704710B5034800F04CF8C8
:101390000249088010BD0000002801400200002022
:1013A00021B1826842F00102826003E0826822F08B
:1013B000010282607047000010B504461248844262
:1013C00008D10121401500F065FB0021601500F0F7
:1013D00061FB17E00D48844208D10121001500F09F
:1013E00059FB0021201500F055FB0BE00848844212
:1013F00008D10121C80300F04DFB00214FF400404B
:1014000000F048FB10BD000000240140002801400E
:10141000003C0140014600208A6802F004020AB143
:10142000012000E0002070470146C86C80B2704780
:10143000014600208A6802F008020AB1012000E09B
:101440000020704730B502460020002350680F4C42
:1014500020400D790C6844EA0524204350609068D0
:101460000B4C2040D1E902542C434D7944EA450409
:1014700020439060D06A20F470000C7C641EE4B2BB
:10148000234340EA0350D06230BD0000FFFEF0FF6E
:10149000FDF7F1FF816841F00801816070478168C4
:1014A00041F004018160704700BFFEE77047000013
:1014B0004FF0E020006920F004004FF0E0210861C7
:1014C000094800680949B0FBF1F00949087008466D
:1014D000007800EB4001C1EBC0104FF6FF7101EA4C
:1014E000C0000449088070473000002000127A00D4
:1014F00004000020060000200146114A12884A43D9
:101500004FF0E0235A6100229A611A46126942F0B4
:1015100001021A6100BF4FF0E022106900F00102E1
:101520001AB100F48032002AF5D04FF0E02212699F
:1015300022F001024FF0E0231A6100229A61704705
:101540000600002010B54FF4005000F027F8B8B1A5
:101550001420FFF7D1FF4FF400510A4800F027F99B
:1015600050B90948007808B9012000E00020064978
:1015700008700120054908704FF4005000F008F889
:1015800010BD0000001001400000002001000020FC
:101590000149086070470000140401400146002022
:1015A0000022074B1B6803EA0102054B14331B683A
:1015B0000B4013B10AB1012000E000207047000089
:1015C00000040140002123498279002A3AD00A46CA
:1015D000126803689A430B461A600A1D1268036872
:1015E0009A430B1D1A60027911440A6803681A4372
:1015F0000A60184A0832126803689A43154B083388
:101600001A601A1D126803689A43124B0C331A6051
:101610004279102A0ED11A1F126803681A430D4B23
:1016200008331A601A1D126803681A43094B0C33F9
:101630001A600DE00749427911440A6803681A43A9
:101640000A6005E0027911440A6803689A430A6057
:10165000704700000004014030B500228B071C0FCA
:101660000F2303FA04F20B4B8C1053F824309343EE
:10167000084C8D1044F8253023468C1053F8243044
:101680008C07240F00FA04F42343024C8D1044F815
:10169000253030BD080001402DE9F041024600250B
:1016A0000026002000230024002791F803C00CF03E
:1016B0000F0591F803C00CF0100CBCF1000F03D023
:1016C00091F802C04CEA050591F800C0BCF1000F8A
:1016D00031D0146800202BE04FF0010C0CFA00F31D
:1016E000B1F800C00CEA03069E4220D183004FF0FF
:1016F0000F0C0CFA03F7BC4305FA03FC4CEA040494
:1017000091F803C0BCF1280F06D14FF0010C0CFA80
:1017100000FCC2F814C00AE091F803C0BCF1480F05
:1017200005D14FF0010C0CFA00FCC2F810C0401CAF
:101730000828D1D31460B1F800C0BCF1FF0F34DD2C
:10174000546800202EE000F1080C4FF0010808FA60
:101750000CF3B1F800C00CEA03069E4221D18300CD
:101760004FF00F0C0CFA03F7BC4305FA03FC4CEAEC
:10177000040491F803C0BCF1280F05D100F1080C56
:1017800008FA0CF8C2F8148091F803C0BCF1480FB5
:1017900007D100F1080C4FF0010808FA0CF8C2F864
:1017A0001080401C0828CED35460BDE8F08102466A
:1017B000002093680B400BB1012000E0002070472F
:1017C0000AB1016100E04161704700BFFEE700001F
:1017D00008B50121042000F04DF948208DF80300E0
:1017E0004FF48050ADF8000003208DF802006946E8
:1017F0000148FFF751FF08BD000801401FB5012156
:10180000112000F037F94FF40050ADF80C004820DB
:101810008DF80F0003A91248FFF73EFF0D210220AB
:10182000FFF71AFF4FF40050019000208DF80800D8
:101830000C208DF8090001208DF80A0001A8FFF79F
:10184000C1FE28208DF8000001208DF801008DF8E0
:1018500002008DF80300684600F090F81FBD0000FC
:10186000001001402DE9F04104460D46201E01DB29
:10187000014600E041420E46281E01DB014600E021
:1018800041420F46B6F5616F02DB40F60F6000E0A3
:1018900030460646B7F5616F02DB40F60F6000E0A8
:1018A00038460746B1B2044800F037FEB9B20248E4
:1018B00000F035FEBDE8F081002C014000BFFEE7DE
:1018C00008B50121082000F0D5F810208DF803009C
:1018D0004FF47040ADF8000003208DF80200694617
:1018E0000148FFF7D9FE08BD000C014038B90121BD
:1018F0000C4A116000210C4AC2F8B01111E0012815
:1019000007D10021074A11600121074AC2F8B0112E
:1019100007E0022805D10021024A1160024AC2F8FC
:10192000B0117047B48121420080214238B90121B1
:101930000C4A116000210C4AC2F8BC1111E00128C8
:1019400007D10021074A11600121074AC2F8BC11E2
:1019500007E0022805D10021024A1160024AC2F8BC
:10196000BC117047B881214200802142704710B5F8
:101970004FF4A06000F03AF810BD000070B50021EF
:1019800000230F22C47804B3154C246804F4E064E7
:10199000C4F5E064210AC1F10403CA40447804FAA2
:1019A00003F184781440214309010E4C0678A155B7
:1019B000047804F01F050124AC4005786D11AD00DA
:1019C00005F1E025C5F8004109E0047804F01F05A1
:1019D0000124AC40044D0678761145F8264070BDD0
:1019E0000CED00E000E400E080E100E0024901438A
:1019F000024A1160704700000000FA050CED00E09B
:101A000000200B490860486088604861C860086130
:101A10000862C8630864074848624FF07C508862D7
:101A2000C862002088630863486348647047000008
:101A30004401002000004C42704700000146002095
:101A4000034A506820F4404008435060704700004B
:101A50000010024029B1064AD2690243044BDA6100
:101A600004E0034AD2698243014BDA617047000007
:101A70000010024029B1064A92690243044B9A6160
:101A800004E0034A92698243014B9A617047000067
:101A90000010024029B1064AD2680243044BDA60C2
:101AA00004E0034AD2688243014BDA6070470000C9
:101AB0000010024030B500210022002400232D4DEB
:101AC0006D6805F00C0121B1042905D0082923D146
:101AD00005E0294D056022E0274D05601FE0254DFA
:101AE0006D6805F47012234D6D6805F4803402258D
:101AF00005EB92421CB9214D554305600BE01D4D8D
:101B00006D6805F400351DB11C4D5543056002E0BC
:101B1000194D5543056002E0174D056000BF00BF39
:101B2000144D6D6805F0F0010909154D6B5C0568F1
:101B3000DD4045600F4D6D6805F4E061090A104D08
:101B40006B5C4568DD4085600A4D6D6805F4605149
:101B5000C90A0B4D6B5C4568DD40C560054D6D687D
:101B600005F44041890B074D6B5CC568B5FBF3F587
:101B7000056130BD0010024000127A0000093D00EE
:101B80001C0000202C00002070B50546022D02D05C
:101B9000042D14D10AE04FF0804000F09FFB04B206
:101BA00000214FF0804000F0BDFC09E0064800F045
:101BB00095FB04B20021044800F0B4FC00E000BF33
:101BC00000BF204670BD000000080040704710B5FF
:101BD00000F002F810BD00000CB50020019000904C
:101BE0003348006840F480303149086000BF304815
:101BF000006800F4003000900198401C01900098AB
:101C000018B90198B0F5A06FF1D12948006800F427
:101C1000003010B10120009001E0002000900098F9
:101C2000012843D12348006840F010002149086092
:101C30000846006820F0070008600846006840F089
:101C4000020008601A484068194948600846406820
:101C500048600846406840F4806048600846406834
:101C600020F47C1048600846406840F4E810486062
:101C70000846006840F08070086000BF0C480068AB
:101C800000F000700028F9D00948406820F00300F7
:101C9000074948600846406840F00200486000BFBD
:101CA0000348406800F00C000828F9D10CBD000082
:101CB00000100240002002407047000010B5134899
:101CC000006840F00100114908600846406810496A
:101CD00008400E494860084600680E4908400B4914
:101CE00008600846006820F48020086008464068C4
:101CF00020F4FE0048604FF41F008860FFF767FF84
:101D00004FF000600449086010BD00000010024060
:101D10000000FFF8FFFFF6FE08ED00E0F0B50C460E
:101D2000154600220021068C4FF6FE773E400684C1
:101D3000028B018C4FF60C7632407E1C06EA0316AD
:101D40002E433243104EB0420ED0104EB0420BD054
:101D5000B0F1804F08D00E4EB04205D00D4EB042CB
:101D600002D00D4EB04206D14FF6FD76314044F020
:101D70000106314305E04FF6F576314044F00106A7
:101D8000314302830184F0BD002C01400034014046
:101D90000004004000080040000C0040F0B50C4674
:101DA0001546002200210026078C4FF6EF7C07EA3B
:101DB0000C070784028B018C4FF6FF7707EA0416A5
:101DC00040F6FF473A404FF6FF7707EA03373A43BA
:101DD0004FF6FF7707EA05273A43114FB8420ED076
:101DE000104FB8420BD0B0F1804F08D00E4FB84220
:101DF00005D00E4FB84202D00D4FB84206D14FF673
:101E0000DF77394046F01007394305E04FF65F773A
:101E1000394044F01007394302830184F0BD0000CB
:101E2000002C014000340140000400400008004044
:101E3000000C0040F0B50C4615460022002100269B
:101E4000078C4FF6FF6C07EA0C070784828B018C26
:101E50004FF6FF7707EA04264FF60C773A404FF625
:101E6000FF7707EA03172F433A43114FB8420ED0CA
:101E7000104FB8420BD0B0F1804F08D00E4FB8428F
:101E800005D00E4FB84202D00D4FB84206D14FF6E2
:101E9000FF57394046F48077394305E04FF2FF574A
:101EA000394044F48077394382830184F0BD0000D7
:101EB000002C0140003401400004004000080040B4
:101EC000000C0040F0B50C4615460022002100260B
:101ED000078C4EF6FF7C07EA0C070784828B018C87
:101EE0004FF6FF7707EA043640F6FF473A404FF6D1
:101EF000FF7707EA05273A434FF6FF7707EA0337EC
:101F00003A43114FB8420ED0104FB8420BD0B0F147
:101F1000804F08D00E4FB84205D00E4FB84202D0C5
:101F20000D4FB84206D14DF6FF77394046F4805741
:101F3000394305E047F6FF57394044F480573943A9
:101F400082830184F0BD0000002C01400034014078
:101F50000004004000080040000C004030B589B08B
:101F600004460D46012140F60500FFF783FD4FF4BE
:101F70001060ADF8200018208DF8230003208DF8A4
:101F8000220008A91F48FFF787FB0020ADF81A00C0
:101F9000ADF81600ADF81850ADF814408DF81C00DF
:101FA00005A9194800F0ECFA01A800F0ACFA60208D
:101FB000ADF804000020ADF80C000120ADF80800D9
:101FC0000020ADF80A0001A90F4800F0FBF901A9B3
:101FD0000D4800F04DFA01210B4800F04FF908219F
:101FE000094800F03BFA0821074800F07FFA012178
:101FF000054800F019F90121034800F033F909B050
:1020000030BD000000080140002C014000B587B041
:1020100001210420FFF72EFD01210846FFF71AFDDC
:102020000320ADF8180004208DF81B0003208DF864
:102030001A0006A91948FFF72FFB0020ADF812007F
:10204000ADF80E004FF6FF70ADF810000020ADF8AF
:102050000C008DF8140003A94FF0804000F090FAB6
:1020600000231A4603214FF0804000F016F90A20A1
:10207000ADF808006946400700F044F90122114616
:10208000900700F095F900214FF0804000F04AFAE7
:102090000121880700F0E6F807B000BD0008014004
:1020A00010B50121880700F01CF9012803D1012196
:1020B000800700F0D4F810BD70B50121244800F06D
:1020C00010F9012842D10121214800F0C8F802206E
:1020D000FFF75AFD00B21F4908810420FFF754FDA5
:1020E000404200B21B49488108460068B1F9081017
:1020F000084418490860086800F0A8FF054616491A
:1021000000F0C6FE0446154900F0ECFF14490860D3
:1021100014484078012817D113481449C863084669
:10212000C06B1349086000F075FB044600F072FFB5
:102130000E4948640846406C0E4908600B4A516CD1
:10214000506CFFF78FFB01E000F04EFD70BD00000A
:10215000000400408C0100200000B644A463A841A4
:1021600018000020080000200000FA43440100206D
:102170000C0000201400002000B587B001210820C9
:10218000FFF778FC01210420FFF764FCC020ADF8C4
:10219000180004208DF81B0003208DF81A0006A9F2
:1021A0001848FFF779FA0020ADF81200ADF80E00DC
:1021B0004FF6FF70ADF810000020ADF80C008DF860
:1021C000140003A9104800F0DBF900231A4603218C
:1021D0000D4800F062F80A20ADF8080069460A4888
:1021E00000F090F801221146074800F0E1F80021C4
:1021F000054800F097F90121034800F033F807B0D3
:1022000000BD0000000C01400008004010B5012195
:10221000044800F066F8012803D10121014800F0CC
:102220001EF810BD0008004021B1028842F0800273
:10223000028004E002884FF67F731A4002807047E4
:1022400030B5002301248C40A3B2048C9C43048449
:10225000048C02FA01F5ADB22C43048430BDCA43AC
:102260000282704721B1028842F00102028004E03C
:1022700002884FF6FE731A400280704731B1B0F801
:10228000442042F40042A0F8442005E0B0F8442085
:10229000C2F30E02A0F844207047F0B50C46154674
:1022A0001E460021002200230189028B038C4FF679
:1022B000F877394021434FF6FC473A4040F2011786
:1022C0003A434FF6DD773B404FF6FF7707EA0617B4
:1022D0002F433B43018102830384F0BD0146888C78
:1022E000704730B50246002000230024158A05EA15
:1022F0000103958905EA010413B10CB1012000E046
:10230000002030BD70B505460C46244885420ED0ED
:10231000234885420BD0B5F1804F08D02148854233
:1023200005D02148854202D02048854200D100E0F6
:1023300000BF208850B92389A28861882846FFF70A
:10234000EDFCE188284600F0EFF825E0208804281D
:102350000AD12389A28861882846FFF71FFDE188FA
:10236000284600F0EAF817E0208808280AD12389D7
:10237000A28861882846FFF75DFDE188284600F0C5
:10238000E9F809E02389A28861882846FFF79AFDC9
:10239000E188284600F0E7F870BD0000002C0140FD
:1023A000003401400004004000080040000C0040E0
:1023B0001AB183890B43838102E083898B43838134
:1023C0007047000070B5002400220023058C4FF6F2
:1023D000FE7635400584028C8388048B4FF68F751A
:1023E0002C40B51E2C400D882C43751E2A400D89AB
:1023F0002A434D882A43144DA8420BD0134DA842BE
:1024000008D0134DA84205D0124DA84202D0124D5B
:10241000A84213D14FF6F7752A404D892A434FF64B
:10242000FB752A408D882A434FF6FF652B404FF6F7
:10243000FF552B408D892B43CD892B43838004830B
:10244000CD888586028470BD002C01400034014097
:102450000040014000440140004801400A4600217C
:10246000018B4FF6F7731940114301837047000049
:1024700070B5002200230024058C4EF6FF7635400F
:102480000584038C8488828B48F6FF752A404FF6BA
:10249000FF452A400D884FF6FF7606EA05252A43B8
:1024A0004DF6FF752B400D8906EA05352B434D8807
:1024B00006EA05352B430B4DA84202D00A4DA8422F
:1024C00008D14BF6FF752C408D894FF6FF7606EA52
:1024D00085152C4384808283CD88A0F840500384E6
:1024E00070BD0000002C0140003401400A4600216C
:1024F000818B4FF2FF7319404FF6FF7303EA0223FB
:102500001943818370470021018041808180C1800F
:10251000018141818181C181704781867047A0F826
:102520004010704781847047028B4FF6F3731A4056
:102530000283028B0A4302837047028B4FF2FF3300
:102540001A400283028B4FF6FF7303EA01231A43FA
:1025500002837047828B4FF6F3731A408283828B1B
:102560000A4382837047828B4FF2FF331A40828383
:10257000828B4FF6FF7303EA01231A43828370476D
:10258000002202881D4B98420ED01D4B98420BD062
:10259000B0F1804F08D01B4B984205D01A4B98429F
:1025A00002D01A4B984204D14FF68F731A404B88D1
:1025B0001A43174B984207D0164B984204D04FF657
:1025C000FF431A40CB881A4302808B8883850B888F
:1025D00003850A4B98420BD0094B984208D00E4B0A
:1025E000984205D00D4B984202D00D4B984201D134
:1025F0000B7A03860123838270470000002C014080
:10260000003401400004004000080040000C00407D
:102610000010004000140040004001400044014010
:10262000004801404FF6FF71818000210180C18088
:1026300041800172704700001FB501210220FFF7A1
:1026400009FA1D208DF80C0001208DF80F000020E4
:102650008DF80D008DF80E0003A8FFF78FF968467E
:10266000FFF7E0FF0020ADF8020042F20F70ADF876
:1026700004004720ADF8000069460D48FFF780FFD1
:102680001D208DF80C0001208DF80F0000208DF822
:102690000D008DF80E0003A8FFF770F90122114616
:1026A0000348FFF785FE01210148FFF7DBFD1FBD51
:1026B0000004004021B1828942F40052828104E08A
:1026C00082894DF6FF731A408281704702460020CE
:1026D000B1F5007F00D100BF13880B400BB1012082
:1026E00000E000207047F0B50346002400260025D6
:1026F000002040F66A17B94200D100BF1846C1F366
:10270000421401F01F06012707FA06F5012C01D13A
:102710000C3004E0022C01D1103000E014301AB16A
:1027200007682F43076002E00768AF430760F0BD0A
:102730002DE9F04786B005460E460024A24600BFAC
:10274000A1460027B08900B100BF2F462C8A4CF665
:10275000FF700440F08804432C82AC894EF6F310DD
:102760000440B08831890843718908430443AC812F
:10277000AC8A4FF6FF400440B0890443AC8201A804
:10278000FFF798F91F48874202D1DDF810A001E059
:10279000DDF80CA0A88900F4004040B10AEBCA00A3
:1027A00000EB0A1031684900B0FBF1F807E00AEBD2
:1027B000CA0000EB0A1031688900B0FBF1F8642010
:1027C000B8FBF0F004012009642101FB1089A889FD
:1027D00000F4004040B1322000EBC900B0FBF1F042
:1027E00000F00700044308E0322000EB09106421E8
:1027F000B0FBF1F000F00F0004432C8106B0BDE8FF
:10280000F087000000380140C1F308028280704761
:1028100000BFFEE72DE9F0410B49B1F9080000F0D7
:1028200015FC0746094900F033FB0646084900F04D
:1028300059FC044607480460204600F00DF80546A0
:102840002846BDE8F08100008C0100200000B6445D
:102850000080BB45100000202DE9F04705462B48BD
:10286000C16B284600F03BFD28490863086B4FF018
:102870007C5100F003FC09D22449086B4FF03F4122
:1028800000F0FCFC02D20020204908631F4A116BB3
:10289000906B00F08FFA1D498863886B1C4900F02B
:1028A000EDFC02D21A48194988631849886B194906
:1028B00000F0E4FB02D2174814498863134A516BB5
:1028C000106B00F017FD80461048C16A404600F0CA
:1028D00009FC06460D4A916B906A00F003FC8046A5
:1028E0000A4A116B506A00F0FDFB8146414600F038
:1028F00061FA0746314600F05DFA04460348006B72
:10290000024948632046BDE8F087000044010020EA
:1029100000401C4600401CC610B5FFF771F80020AF
:102920000749086048600120064948700020FEF70A
:10293000DDFF0020FEF7FAFF00F074F910BD000083
:102940008C0100200800002010B5002002494870CA
:1029500000F04AF910BD000008000020490050EACC
:10296000C12018BF04204A0D18BF40F0010040F2FA
:10297000FF72B2EB515F08BF40F00200012808BFB0
:102980000520704730380A2801D201207047002006
:102990007047000000B587B001214FF40170FFF7C8
:1029A00069F84FF48040FFF749F80820ADF80400BB
:1029B00000208DF8070001A91748FEF76DFE1748A3
:1029C000FEF7FAFC002002908DF80C008DF80D0047
:1029D0004FF4602004900020059001208DF818002D
:1029E00002A90E48FEF72EFD01210C48FEF7D8FC87
:1029F0000A48FEF74FFD00BF0848FEF719FD002802
:102A0000FAD10648FEF74BFD00BF0448FEF702FD71
:102A10000028FAD107B000BD0008014000240140A1
:102A200008B50020009001210820FFF723F80320BB
:102A3000ADF800008DF8020010208DF80300694603
:102A40000F48FEF729FE01210420FFF713F880202C
:102A5000ADF8000003208DF8020010208DF803006F
:102A600069460848FEF718FE002203210448FEF7D5
:102A7000A7FE002280210348FEF7A2FE08BD000049
:102A8000000C01400008014086B0FEF770FF4FF4D3
:102A9000E13000F0F7F8FEF70BFDFFF7C1FFFEF79E
:102AA0000FFFFFF777FF41F61F410020FFF756FAAF
:102AB000FFF7ACFAFFF760FBFFF7BEFDFEF79EFEE7
:102AC000FEF786FE25A000F0D1F84FF4FA70FEF76D
:102AD00013FD00BF28480078012811D100202649A5
:102AE000087026480078012805D125A000F0BEF81E
:102AF000FFF712FF04E026A000F0B8F8FFF724FF6C
:102B000027484078012825D12648006800F026F99A
:102B100004460D462448006800F020F906460F469A
:102B20002248006800F01AF980462148CDE90445A2
:102B3000006842460B461FA1CDE900670290294874
:102B4000FDF752FB274800F091F84FF480712548BB
:102B5000FDF721FC6420FEF7CFFCBBE756656C6FE8
:102B60006369747920504944205465737420526518
:102B70006164792E0D0A0000010000200000002091
:102B8000546573742053746172746564210D0A0076
:102B9000546573742053746F707065642E0D0A0051
:102BA0000800002018000020100000200C00002069
:102BB00014000020545F5370643A252E31662C2097
:102BC000415F5370643A252E31662C20565F4F7555
:102BD000743A25642C20446973743A252E31660DAD
:102BE0000A0000004400002010B500200B490870C6
:102BF0000220FEF77BFE0220FEF798FE0021084629
:102C0000FEF730FE002211460548FFF719FB0022AF
:102C10000C210348FFF714FB10BD00000800002042
:102C2000002C014010B50120064908700122002146
:102C30000548FFF705FB01220C210348FFF700FBC5
:102C400010BD000008000020002C014010B5044613
:102C500021460548FFF7D8FD00BF80210248FFF755
:102C600035FD0028F9D010BD0038014010B50446EC
:102C700003E014F8010BFFF7E9FF207808B1002CFE
:102C8000F7D110BD10B586B00446012144F204000E
:102C9000FEF7F0FE4FF40070ADF8140003208DF83D
:102CA000160018208DF8170005A91C48FEF7F4FC43
:102CB0004FF48060ADF8140004208DF8170005A9CA
:102CC0001648FEF7E9FC25208DF8000000208DF85D
:102CD000010001208DF802008DF803006846FEF720
:102CE0004DFE01940020ADF80800ADF80A00ADF8E3
:102CF0000C00ADF810000C20ADF80E0001A908483A
:102D0000FFF716FD012240F225510548FFF7EBFCC5
:102D100001210348FFF7CEFC06B010BD00080140BA
:102D20000038014010B500290AD00878002807D0E3
:102D300005487844FDF726FF002801D0002010BD8B
:102D40000248784410BD0000660700005E070000DE
:102D50000808A0F500114FEA3101704743004FEA1F
:102D6000D30C4FEA3C0C43401FBF40070CF16051AD
:102D700013F0FE4F70471CF0006F03D100200CF0E1
:102D8000004170470CF0004343EA507010B540EA30
:102D9000CC0000F028FA00BF000000924FEA0001CA
:102DA000FFF7D6BF4FF000414FF00000A1F5002122
:102DB0007047000090EA010F48BF81F0004100F128
:102DC000A082421A3CBF801A89184FEAD0524FF0B5
:102DD0007F4C1CEA410FA2EBD15318BF9CEA026F53
:102DE00000F03B804FF0004C4CEA00204CEA0121FF
:102DF00021FA03FC10EB0C0C1ED202F1FF325FEA49
:102E00001C2040EBC25038BF70471CF07F0F4FEAC8
:102E1000400C18BFBCF17F4F38BF7047C3F120038F
:102E2000994008BF20F00100BCF17F4F38BF7047C8
:102E3000A0F1C04000F01DBA4FEA3C00000A40EB90
:102E4000C25028BF1CF0FF0F4FEA400CE6D018BF5D
:102E5000BCF17F4F38BF7047EAE79CEA026F05D0AC
:102E600010EA5C0F08BF00F00040704710B500F09A
:102E7000BAF900BF64FBBE3E401058BFC0F14040ED
:102E8000491058BFC1F140418142EFF300807047C3
:102E90004FF47F0C1CEAD0121EBF1CEAD11392EA39
:102EA0000C0F93EA0C0F00F0858090EA010F48BFE9
:102EB00042F4807240F4000C41F400002CF07F4199
:102EC00020F07F4000B58142A2EB03020FF2081C04
:102ED000ACEB504EC0F100009EF800E04FEA4E0E01
:102EE00000FB0EFC38BF49004FEA2C1C02F5FA0229
:102EF0000CFB0EF34FEACE1E4FEA112C4FEAC12114
:102F00000EEB635E42EB22420EFB0CFC4FEA1C53BD
:102F100000FB03114FEA112C4FEA01310EFB0CFCB0
:102F20004FEADC4C00FB0C11C14228BF09184CEBE6
:102F300003335DF804EB10EB410143EBC250B2F5F3
:102F40007C0F38BF704729D512F0F00F1CBF00F17D
:102F5000C04000F0004070470081828384858687EE
:102F600088898B8C8D8E8F919293959697999A9C48
:102F70009D9FA0A2A3A5A7A8AAACAEB0B2B3B5B7B7
:102F8000B9BCBEC0C2C5C7C9CCCED1D4D7D9DCDF8D
:102F9000E2E6E9ECF0F3F7FAFE0000004FEA400C3D
:102FA0000CF1807CBCF17E4F28BF7047B0F1C0406F
:102FB00000F05FB990EA010F0CEAD11348BF42F468
:102FC0008072624538BF634507D213F47F0F16D075
:102FD00080EA010000F00040704710B500F003F9EE
:102FE000097EFC3E00F005B880EA010000F00040D8
:102FF000704780EA010000F0004000F03AB912F496
:103000007F0F04BF0248704780EA010000F031B929
:103010000000C07F41000B0ED3F19E0208D950F48E
:1030200000034FEA032323FA02F048BF40427047EF
:1030300010B500F0D8F800BF4992248000207047F6
:103040006FF0004282EA20007047000010F000415B
:1030500048BF4042B0FA80F310FA03F2C3F19D0377
:103060000BD051EAC35101EB1220530638BF704711
:1030700000F1010008BF20F00100704750EA010C88
:1030800000F113801CF5000F58BFBCF5000F01D4F0
:103090008842704707D710F5000F58BF11F5000F91
:1030A00015D488427047894270471CF5000F04D53B
:1030B000BCF5000FF7D5814270474FF0807C1CEBC8
:1030C000400F38BF1CEB410F01D28142704710B551
:1030D00000F089F8922449004FF000504FF08051E1
:1030E000FFF7CABE4FF47F0C1CEAD0121EBF1CEAC9
:1030F000D11392EA0C0F93EA0C0F00F0478090EA8C
:10310000010F48BF42F480724FF0004C4CEA00209F
:103110004CEA012102EB0302A0FB0113A2F500021D
:10312000002918BF43F001035B0028BF4FEA3303B7
:1031300042EB22425FEA132C4CEBC2502EBFBCEB99
:10314000436FB2F57C0F70474FEA036CBCF1004F40
:1031500008BF20F00100B2F57C0F38BF70470BD5D7
:1031600082F0FF0212F5803FC8BF704700F1C040F7
:10317000D8BF00F00040704700F5000C5FEA4C0C2F
:1031800048BF7047B0F1C04000F073B890EA010F3B
:103190000CEAD11348BF42F48072624538BF6345E0
:1031A00004D280EA010000F00040704710B500F042
:1031B0001AF800BF8900013E00F007B800F009B816
:1031C0005FEA410C5FEA1C6C08D080EA010000F065
:1031D00050B85FEA400C5FEA1C6CF6D14FF000403B
:1031E000A0F5800070470EF1020E2EF0030E5EF87F
:1031F000044B244204D44FEA4102B2F17F4F11D86C
:103200004FEA4003B3F17F4F0CD80ED14FEAD07C88
:10321000B2F17F4F0CEB4C0C0CF1020C08BF4CEBE5
:10322000D17C04E04FF0080C01E04FEAD17C0CEBBC
:103230004C0324FA03F404F00704B4F1040C06D29E
:103240000EEB840CBDE810404CF0010C6047DFE849
:103250000CF0070802024FF00040A0F5800010BDFE
:103260000846420018BFD2F1807288BF00F00040CB
:1032700010BDFF2141EAD050C005704751EA000C53
:1032800000F113801CF5000F58BFBCF5000F01D4EE
:103290008142704707D711F5000F58BF10F5000F96
:1032A00015D481427047894270471CF5000F04D540
:1032B000BCF5000FF7D5884270474FF0807C1CEBBF
:1032C000410F38BF1CEB400F01D28842704780EAA3
:1032D000010081EA000180EA0100FFF7F8BE80F0FA
:1032E000004090EA010F7FF56CAD81F0004100F0E5
:1032F00008B8000090EA010F48BF81F000413FF597
:1033000060AD421A04D882F00042A0EB02001144E2
:103310004FEAD0524FF07F4C1CEA410FA2EBD15341
:1033200018BF9CEA026F4AD04FF0004C4CEA0020D4
:103330004CEA012121FA03FCB0EB0C0C0FD412F083
:10334000FE0F36D05FEA4C001DD5001240EBC25094
:1033500038BF70471CF03F0F18BF70470BE0A2F159
:1033600001025FEA1C2040EBC25038BF70471CF0DE
:103370007F0F18BF7047C3F12003994014BF401E50
:1033800020F00100704780084FEA122308BF704701
:10339000B0FA80FCA2EB0C02CCF1280C60FA0CF025
:1033A00093EA122F04BF00EBC25070474FEAC3707C
:1033B0007047130A5FEADC1008BF7047F6E79CEA23
:1033C000026F04D010EA5C0F08BF0020704710B5F0
:1033D000FFF709FF40DFF63E81F000407047FDF740
:1033E0002FB9000002400000000000A00000000013
:1033F00005400000000000C8000000000C40000074
:103400000000409C00000000194000000020BCBEED
:103410000000000034400000BFC91B8E0000000403
:10342000B5400000504BCFD06607E2CF010000004E
:103430006C4100003E8251AADFEEA734010000007B
:10344000D9420000DCB5A0E23A301F97FFFFFFFF32
:10345000B4450000FD25A0C8E9A3C14FFFFFFFFF51
:10346000FF3F00000000008000000000FF3F000060
:103470000000008000000000B434000800000020BC
:103480004400000028010008F8340008440000202F
:10349000C4070000440100081C00000043000000B5
:1034A000F8FFFFFF0C0000000E0000000F000000FE
:1034B0002E000000000000000000000000000000DE
:1034C00000000000000000000000000000000000FC
:1034D00000000000010203040102030406070809BA
:1034E0000204060800A24A040000000000000000D8
:0834F0000102030406070809AC
:04000005080000ED02
:00000001FF
